:100000000C9491000C94131E0C94401E0C94B90097
:100010000C94B9000C94B9000C94B9000C94B9007C
:100020000C94B9000C94B9000C94B9000C94B9006C
:100030000C94B9000C947E040C94B9000C94B90093
:100040000C946D1E0C94B9000C94C9210C944C2294
:100050000C94B9000C94B9000C94B9000C94B9003C
:100060000C94B9000C94B9003000220022002256F2
:1000700031325F312E303022007D5D7D002C2244F4
:1000800041223A00222C2256223A302C2244223A93
:1000900000223A5B7B2247223A22004552524F52BD
:1000A0000041434B00554E504C554700504C55476E
:1000B000494E00444556494345007B22000000005C
:1000C00000240027002A0000000000250028002B43
:1000D000000000000023002600290004040404049A
:1000E00004040402020202020203030303030301E5
:1000F00002040810204080010204081020010204BC
:1001000008102000000007000201000003040600A0
:10011000000000000000000071047C05CC051D06F5
:10012000FF2111241FBECFEFD8E0DEBFCDBF11E00D
:10013000A0E0B1E0E2E7FBE402C005900D92A83A2E
:10014000B107D9F716E0A8EAB1E001C01D92A93EB7
:10015000B107E1F711E0C2E2D1E004C02297FE014D
:100160000E947125C831D107C9F70E9472220C94F0
:10017000B7250C940000EF92FF920F93DF93CF937B
:10018000CDB7DEB760970FB6F894DEBF0FBECDBF18
:10019000A82F002309F461C07E010894E11CF11C22
:1001A00088E0F70111928A95E9F729833A834B8316
:1001B0005C836D837E83AF83988780E2801BE82F0A
:1001C000FF27E7FDF0954D815E816F8178851816D8
:1001D00084F01D861E861F86188A882799278E1B05
:1001E0009F0B04C076956795579547958A95D2F7EA
:1001F00028C0202F332727FD3095DB01CA01022EAE
:1002000004C0B695A795979587950A94D2F78D87E0
:100210009E87AF87B88B04C0440F551F661F771F9A
:10022000EA95D2F789819A81AB81BC8104C0B695E9
:10023000A795979587952A95D2F7482B592B6A2B26
:100240007B2B49875A876B877C8729853A854B8525
:100250005C856D857E85AF8598898A2F60960FB6FF
:10026000F894DEBF0FBECDBFCF91DF910F91FF900D
:10027000EF900895EF92FF920F93DF93CF93CDB756
:10028000DEB760970FB6F894DEBF0FBECDBFA82FC4
:10029000002309F461C07E010894E11CF11C88E090
:1002A000F70111928A95E9F729833A834B835C839E
:1002B0006D837E83AF83988780E2801BE82FFF27C2
:1002C000E7FDF09549815A816B817C81181684F095
:1002D00019861A861B861C86882799278E1B9F0BDA
:1002E00004C0440F551F661F771F8A95D2F728C098
:1002F000202F332727FD3095DB01CA01022E04C0D1
:10030000880F991FAA1FBB1F0A94D2F789879A8763
:10031000AB87BC8704C07695679557954795EA9556
:10032000D2F78D819E81AF81B88504C0880F991F57
:10033000AA1FBB1F2A95D2F7482B592B6A2B7B2B60
:100340004D875E876F87788B29853A854B855C85DD
:100350006D857E85AF8598898A2F60960FB6F89453
:10036000DEBF0FBECDBFCF91DF910F91FF90EF9019
:1003700008952F923F925F926F927F928F929F92F9
:10038000AF92BF92CF92DF92EF92FF920F931F93A3
:10039000CF93DF938C011B01EA016115710519F000
:1003A000FB0191838083209749F0CE0102978397C8
:1003B00028F020E030E040E050E0F6C0F801A190E5
:1003C0008F018A2D90E00E947525892BB9F7FDE2F7
:1003D000AF1631F4F801A1908F015524539407C052
:1003E000FBE2AF1619F4F801A1908F015524209774
:1003F00019F0C031D105C1F4F0E3AF1679F4F8017A
:100400008081883711F0883549F4F801A1800E5FAA
:100410001F4FF2E05F2AC0E1D0E006C0209721F430
:1004200080E3A816E9F427C0C830D10531F1C930FE
:10043000D10524F4C230D10531F50CC0CA30D10544
:1004400089F0C031D105F9F4C12CD12CE12CB8E0F0
:10045000FB2E28C0C12CD12CE12CA0E4FA2E22C006
:10046000CAE0D0E0FCECCF2EFCECDF2EFCECEF2E53
:10047000FCE0FF2E17C0C8E0D0E0C12CD12CE12C4D
:10048000E0E1FE2E0FC09E01442737FD4095542F1A
:1004900060E070E080E090E80E944D25C901DA013B
:1004A0006C017D0120E030E040E050E060E03E0182
:1004B000882477FC8094982C70EDB72EBA0CE9E074
:1004C000EB1570F48A2D81548A3118F499ECB92E09
:1004D00006C08A2D81568A3150F589EAB82EBA0CA9
:1004E0008B2D90E08C179D0714F56F3FE1F0C2163D
:1004F000D306E406F506B0F0CA01B901A4019301E0
:100500000E941A259B01AC012B0D311D411D511D6F
:100510002130F0E03F07F0E04F07F0E85F0710F40C
:1005200061E001C06FEFF801A1908F01C5CF2114E8
:10053000310481F0662331F001501040F101118344
:10054000008308C051FE1AC002501040F10111830F
:10055000008314C067FF12C050FC05C02FEF3FEFAF
:100560004FEF5FE704C020E030E040E050E882E277
:1005700090E09093E8068093E70616C050FE08C00E
:1005800050954095309521953F4F4F4F5F4F0CC090
:1005900057FF0AC082E290E09093E8068093E70656
:1005A0002FEF3FEF4FEF5FE7B901CA01DF91CF9126
:1005B0001F910F91FF90EF90DF90CF90BF90AF9081
:1005C0009F908F907F906F905F903F902F900895B5
:1005D000A0E0B0E0EEEEF2E00C948125EC012B01FE
:1005E0006A016115710519F0FB0191838083C114C3
:1005F000D10449F0C6010297839728F020E030E04B
:1006000040E050E0DCC0A9908A2D90E00E94752562
:10061000892BC9F7FDE2AF1621F4A9903324339456
:1006200005C08BE2A81609F4A9903324C114D104A3
:1006300021F0E0E1CE16D10411F5F0E3AF1669F434
:100640008881883711F0883541F4A980229682E0AC
:10065000382A20E1C22ED12C12C0C114D10479F461
:10066000E0E3AE1659F199E9E92E99E9F92E99E9F5
:10067000092F99E1192F8AE0C82ED12C3AC0FAE04F
:10068000CF16D10491F080E1C816D10429F0E8E03A
:10069000CE16D104F9F415C0BFEFEB2EBFEFFB2E41
:1006A000BFEF0B2FBFE01B2F24C0A9E9EA2EA9E959
:1006B000FA2EA9E90A2FA9E11A2F1BC0F8E0CF2EC4
:1006C000D12CEFEFEE2EEFEFFE2EEFEF0E2FEFE13E
:1006D0001E2F0FC09601442737FD4095542F6FEF12
:1006E0007FEF8FEF9FEF0E944D25C901DA017C015A
:1006F0008D0120E030E040E050E060E036018824E9
:1007000077FC8094982C70EDB72EBA0CF9E0FB15AD
:1007100070F48A2D81548A3118F499ECB92E06C0F0
:100720008A2D81568A3148F589EAB82EBA0C8B2D6C
:1007300090E08C159D050CF56F3FE9F0E216F3068D
:1007400004071507B8F0CA01B901A40193010E947A
:100750001A259B01AC018B2D90E0A0E0B0E0280FA2
:10076000391F4A1F5B1F281739074A075B0710F01C
:1007700061E001C06FEFA990C6CF4114510451F060
:10078000662311F0219703C031FE04C02297F201C5
:10079000D183C08330FE07C0509540953095219598
:1007A0003F4F4F4F5F4F67FF0AC082E290E0909348
:1007B000E8068093E7062FEF3FEF4FEF5FEFB901B9
:1007C000CA01CDB7DEB7E1E10C949D25FC01882775
:1007D0009927E89421912032E9F3293010F02E3046
:1007E000C8F32B3241F02D3239F4689404C00E94D2
:1007F0006904820F911D219120532A30C0F31EF409
:10080000909581959F4F08950F931F93CF93DF93FA
:10081000182F092FE82FF92FDF010D900020E9F79D
:10082000CD018E1B9F0B0E94A81CEC01009721F0AC
:10083000612F702F0E943004CE01DF91CF911F9164
:100840000F91089548EA51E00E9437040895FB0192
:10085000DC0102C001900D9241505040D8F708953C
:10086000FB01DC0101900D920020E1F70895009753
:1008700031F4DA018D919C91009709F40EC0DC01EE
:10088000FB013D912191222319F03217C9F3FACFD0
:10089000332331F4DA011D921C9288279927089599
:1008A0001197AF93BF93FB013D912191321771F4E2
:1008B000332321F488279927119702C01E9211969D
:1008C000FA01A193B0839F918F910895222369F734
:1008D000EACF7AE0979F902D879F802D910D11246C
:1008E00008958AEA91E00E94360E8CEB95E00E9412
:1008F0009F0985ED95E00E94D10508951F920F9202
:100900000FB60F9211242F933F934F935F936F93E2
:100910007F938F939F93AF93BF93EF93FF9380E366
:1009200098EF9093850080938400809100069091C9
:10093000010601969093010680930006209100061F
:10094000309101068091D3059091D405281739077D
:1009500021F48CEB95E00E94ED0A20910006309185
:1009600001068091D1059091D2052817390741F4ED
:100970008CEB95E00E940E0B10920106109200067F
:10098000FF91EF91BF91AF919F918F917F916F9167
:100990005F914F913F912F910F900FBE0F901F903D
:1009A000189582E096E065ED75E00E9425058823A4
:1009B00069F085ED95E00E94D8051816190634F007
:1009C0008AEA91E065ED75E00E94B20B84E096E062
:1009D0000E94AA058AEA91E00E94D40C84E096E085
:1009E0000E94810508950F931F9360ED77E080E0EA
:1009F00090E00E942E1F82E096E040E855E260E021
:100A000070E00E9469050CEB15E0C8010E946E0BB6
:100A1000C8010E94A0098AEA91E00E94270E1F9156
:100A20000F9108951F93162F603130F486E496E0FD
:100A300068E670E00E94B12286E496E0612F40E112
:100A400050E00E9497231F910895CF92DF92EF927A
:100A5000FF920F931F93CF93DF937C016B0186E48A
:100A600096E00E941D21892B11F480E029C0C0E08E
:100A7000D0E013C0C038D105B9F0D7010D911C9159
:100A80000C0F1D1F86E496E00E943921F801808337
:100A900080ED97E00E94E91E219686E496E00E9490
:100AA0001D211816190634F3D701ED91FC91119709
:100AB000EC0FFD1F10826D917C91C6010E940D0804
:100AC000DF91CF911F910F91FF90EF90DF90CF902A
:100AD000089586E496E026E00E94B92008950F93D9
:100AE0001F938C0180E890E00E94A81CF80180838D
:100AF00091831F910F91089582E096E00E946F0507
:100B00000895FC012481358146815781808191813E
:100B1000A281B38182179307A407B50740F4205D33
:100B20003A484F4F5F4F2083318342835383089568
:100B3000FC0160E02481358146815781808191816B
:100B4000A281B38182179307A407B50708F461E077
:100B5000862F08950F931F938C010E94B51EF801F4
:100B600064837583868397831F910F9108950F93F4
:100B70001F938C010E94B51E605B7C438F4F9F4F7B
:100B8000F8016083718382839383148215821682B5
:100B900017821F910F91089584E096E00E94B70597
:100BA0000895FC01118A0895FC0171836083089502
:100BB000FC01828193810895FC017383628308950F
:100BC000FC01848195810895FC01758364830895F7
:100BD000FC01218532854385548565857685878529
:100BE000908908959C012E5E3F4FC9010895FC0134
:100BF00082A5089521E0FC01218B0895FC018189E3
:100C000008950F931F93FC01018712872387348770
:100C1000458756876787708B1F910F910895FC0158
:100C200086810895FC0166830895FC018781908583
:100C30000895FC0170876783089580E091E00E9429
:100C4000040480930C0690930D060895EF92FF9292
:100C50000F931F93CF93DF937B01C0E0D0E0042F6D
:100C600010E009C0F701EC0FFD1F82E096E0608103
:100C70000E9412052196C017D107A4F3DF91CF91EE
:100C80001F910F91FF90EF900895CF92DF92EF9216
:100C9000FF920F931F93DF93CF93CDB7DEB72897C3
:100CA0000FB6F894DEBF0FBECDBF09831A832B8326
:100CB0003C834D835E836F83788767017E01089450
:100CC000E11CF11C90E007E010E0992339F4F701F2
:100CD0008781882319F40C151D053CF482E096E009
:100CE000F70167810E94120591E0015010400894BD
:100CF000E108F108FFEF0F3F1F0739F728960FB6FD
:100D0000F894DEBF0FBECDBFCF91DF911F910F9141
:100D1000FF90EF90DF90CF900895EF92FF920F93A6
:100D20001F93CF93DF93EC0186E496E06CE670E0CE
:100D30000E94B1228C819D810B97A1F482E096E004
:100D40006E810E94120582E096E060E00E9412052A
:100D5000688582E096E00E94120582E096E06F814D
:100D60000E9412058C819D8123E0873E920719F035
:100D70008F5E934069F409851A852B853C854D85E6
:100D80005E856F857889CE01F3E0EF2EF12C0FC0E0
:100D90008989882379F409851A852B853C854D85B9
:100DA0005E856F857889CE01E1E0EE2EF12C0E9400
:100DB000450607C0BE016E5E7F4FCE014AA50E9468
:100DC000260686E496E06AE670E00E94B122DF9192
:100DD000CF911F910F91FF90EF900895FC018081BA
:100DE00091818130910511F0049731F584819581CD
:100DF0008B30910541F023E0873E920721F023E0FC
:100E00008F3E920721F4CF010E948D0608958B5EDC
:100E1000934039F486E496E06EE670E00E94B122D9
:100E20000895418552856385748586E496E02AE0BD
:100E300030E00E948823089586E496E060E070E048
:100E40004AE050E00E94E9230895CF93DF93EC013C
:100E500086E496E06AEB70E00E94B1228881998175
:100E600083309105C9F08430910534F481309105C7
:100E700049F0029709F50BC08430910591F0059770
:100E8000D9F414C086E496E063EB70E013C086E406
:100E900096E06CEA70E00EC086E496E065EA70E0E9
:100EA00009C086E496E061EA70E004C086E496E05A
:100EB0006BE970E00E94B12286E496E061E970E09F
:100EC0000E94B1226A817B8186E496E04AE050E08C
:100ED0000E94E92386E496E064E870E00E94B12273
:100EE0006C817D8186E496E04AE050E00E94E9232F
:100EF00086E496E06DE770E00E94B122CE010E9488
:100F0000EE0686E496E069E770E00E94F422DF9145
:100F1000CF910895FF920F931F938C01F42E9C01A3
:100F20002E5E3F4FC90150E00E942704F801F2A64F
:100F30001F910F91FF9008953F924F925F926F9291
:100F40007F928F929F92AF92BF92CF92DF92EF9259
:100F5000FF920F931F93DF93CF9300D00F92CDB7E3
:100F6000DEB73C014DB65EB6FE01319683E0DF018F
:100F70001D928A95E9F7342E36948DB79EB7831962
:100F800091090FB6F8949EBF0FBE8DBFADB6BEB629
:100F90000894A11CB11C7B0100E010E0C42EDD24EC
:100FA000D694C7944F0117C0D7018C9189831196AD
:100FB0008C918A83C40160E070E040E150E00E94BF
:100FC000B901F501E00FF11F60830F5F1F4FE2E0F1
:100FD000F0E0EE0EFF1E0C151D0531F7C301B50143
:100FE000432D0E948A070FB6F8945EBE0FBE4DBE19
:100FF0000F900F900F90CF91DF911F910F91FF9065
:10100000EF90DF90CF90BF90AF909F908F907F90A8
:101010006F905F904F903F9008952F923F925F9214
:101020006F927F928F929F92AF92BF92CF92DF92F8
:10103000EF92FF920F931F93CF93DF936C01CB013D
:1010400060910C0670910D060E942204FC018FEF46
:101050009FEFD60113969C938E93129715961C9230
:101060001E92149719961C9219971A961C921A9709
:101070001B961C921B971C961C921C971D961C92EB
:101080001D971E961C921E971F961C921F97509696
:101090001C9211E0212E312C2BC18081843409F067
:1010A00009C18181813409F0EFC060910C06709113
:1010B0000D0680E090E00E942204EC01F60184819C
:1010C00095810B9711F05E011EC01A82CE0160E07F
:1010D00070E040E150E00E94E802D60116966C9361
:1010E000B8E0AB2EB12CAC0EBD1E18851886CE0113
:1010F000049660E070E040E150E00E94E802F601F2
:10110000708767831887E50109900020E9F7219728
:10111000CA19DB09C601B5014C2F0E949C07C930D2
:10112000D1051CF4C0E0D0E02FC0289785010C0F3A
:101130001D1FD801FC901C92C50160E070E040E1E9
:1011400050E00E94E8029B01AC01F6016187328702
:1011500043875487158616861786108AD801FC9215
:101160002185328543855485658576858785908977
:1011700000E20E943A01F6012187328743875487B3
:10118000658776878787908BD60119961C9119976A
:101190001A969C901A971B968C901B971C967C9085
:1011A0001C971D960C911D971E96FC901E971F96DE
:1011B000EC901F9750965C90C5018C0F9D1F60E0CE
:1011C00070E040E150E00E94E8029B01AC0160E069
:1011D00070E080E090E0622E610EF1E0621608F0AF
:1011E000F0E0E32FE90DA1E0E31708F0A0E0AF2E57
:1011F000AE0EF1E0AE1608F0F0E0AF2BE42FE80DF4
:10120000B1E0E41708F0B0E0BA2EBE0EF1E0BE1671
:1012100008F0F0E0BF2BE52FE70DF1E0E51708F04F
:10122000F0E01B2F1E0FA1E01E1708F0A0E0FA2B24
:10123000E1E0061708F0E0E0BF2FB00FF1E0B017D3
:1012400008F0F0E0EF2BF1E0F71608F0F0E0AE2F39
:10125000AF0DE1E0AF1508F0E0E0FE2BE1E0E816AD
:1012600008F0E0E09F2F9E0D81E09E1508F080E0E1
:10127000E82BE50DE6016986AA86BB861C87BD873B
:10128000AE879F87E88B2BC0882371F460910C0692
:1012900070910D0680E090E00E9422040E94E60317
:1012A000F601958384831BC08534C9F4D6012D9241
:1012B0003C9215C0873471F460910C0670910D0654
:1012C00080E090E00E9422040E94E603E6019B83F6
:1012D0008A8305C0813419F48181833461F060917F
:1012E0000C0670910D0680E090E00E942204FC0143
:1012F000309709F0D2CEF601828193818F5F9F4FA4
:1013000011F420E009C020E0D60114968D919C9143
:101310001597892B09F021E0822FDF91CF911F9142
:101320000F91FF90EF90DF90CF90BF90AF909F9084
:101330008F907F906F905F903F902F9008950895C9
:10134000DC01F894109280001092810080E398EF05
:101350009093850080938400EFE6F0E080818160C7
:101360008083789454961C920895FC016081718169
:10137000828193810895FC0184898823A9F0848166
:101380009581892B9681892B9781892B9085892B33
:101390009185892B9285892B9385892B29F45485F6
:1013A00045853685978504C054814581368197816E
:1013B000652F742F832F0895CF92DF92EF92FF92C3
:1013C0000F931F937C01FC01148A01E810E0F801DF
:1013D00080818D7F8083D5B0CBB08CE061E00E94AE
:1013E000352088E061E00E94352087E061E00E94BE
:1013F000352068E270E080E090E00E942E1FD5B8B2
:10140000CBB881E0F701848BF80180818260808312
:101410001F910F91FF90EF90DF90CF9008956F9202
:101420007F928F929F92AF92BF92CF92DF92EF9274
:10143000FF920F931F93DF93CF93CDB7DEB728971B
:101440000FB6F894DEBF0FBECDBF3C0109831A83EF
:101450002B833C834D835E836F83788720E030E06D
:101460004B8150E060E070E080E090E000E10E949D
:10147000BB0059018FEF882E912CB4016A197B09AA
:101480008CE00E94961F20E03A8140E050E060E04E
:1014900070E080E090E008E00E94BB00821A930AAE
:1014A00088E0B4010E94961F69817A8160957095E9
:1014B000707087E00E94961FE980FA800B811C8182
:1014C000A8019701D3011496EC92149715963C93BA
:1014D000159716964C93169717961C921797189671
:1014E0001C92189719961C9219971A961C921A9783
:1014F0001B961C9229813A814B815C816D817E8192
:101500008F81988508E10E943A0100E30E94BB00A8
:1015100069012115310509F44BC029813A814B81BC
:101520005C816D817E818F81988500E10E943A0106
:1015300008E30E94BB00222341F4F301148A809146
:1015400081008D7F8093810033C0D30154968C91AC
:101550005497882341F481E054968C9380918100C4
:10156000826080938100F301D68AC58A622F70E081
:10157000882777FD8095982F0E942B247B018C0172
:10158000B60180E090E00E9429249B01AC01C801D3
:10159000B7010E94B72420E030E040E85BE30E94FE
:1015A000B7240E94FD23D30158967C936E935797DE
:1015B00028960FB6F894DEBF0FBECDBFCF91DF9156
:1015C0001F910F91FF90EF90DF90CF90BF90AF9061
:1015D0009F908F907F906F9008950F931F93FC01C1
:1015E00084818487858185878681868787818787AF
:1015F0008085808B8185818B8285828B8385838B9F
:10160000CF0100E010E020E030E040E050E060E09A
:1016100070E00E940F0A1F910F9108950F931F937E
:10162000FC019481258136814781508561857285D1
:101630008385181684F08823B9F4772361F4662330
:1016400051F4552341F4442331F4332321F422236C
:1016500011F4992349F09487258736874787508B63
:10166000618B728B838B0BC004851585268537852E
:101670004089518962897389CF010E940F0A1F91A5
:101680000F910895CF92DF92EF92FF920F931F93E5
:10169000FC017A018B0140835183628373839FEF46
:1016A000C92ED12CB601601B71098AE00E94961FD9
:1016B000CF18D1088BE0B6010E94961FE094F094F9
:1016C0008FEFE822FF2489E0B7010E94961F1F9147
:1016D0000F91FF90EF90DF90CF9008950F931F939D
:1016E0008C018AE061E00E94F61F8BE061E00E94BD
:1016F000F61F89E061E00E94F61F8AE061E00E9427
:1017000035208BE061E00E94352089E061E00E9495
:1017100035208CE061E00E94F61F88E061E00E94C5
:10172000F61F87E061E00E94F61F8CE061E00E94F6
:10173000352088E061E00E94352087E060E00E946B
:101740003520F80110821182128213828FEF848378
:1017500015821682178210861186128613861F91B3
:101760000F910895AF92BF92CF92DF92EF92FF92C6
:101770000F931F93CF93DF935C01EB01CB010E948A
:10178000D805892B09F005C1CE010E94E005875ECE
:10179000934069F4CE010E94E805FC018CEB95E0D2
:1017A00089019A01AB01BF010E940F0AE4C0CE017A
:1017B0000E94E0058F5E934059F4CE010E94E80537
:1017C000FA018CEB95E0A901BF010E94420BD3C046
:1017D000CE010E94E0050B9709F0CDC0C5010E9423
:1017E000540FCE010E940F06853059F186302CF43B
:1017F000833059F08430BCF45CC08730F1F187301D
:1018000074F1883009F055C046C0CE010E9415061B
:101810008C0186E190E00E948422F82EE92EB80126
:101820000E94741253C0CE010E9415068C018AE0FA
:1018300090E00E948422F82EE92EB8010E94C00F89
:1018400045C0CE010E9415068C018AE090E00E94FE
:101850008422F82EE92EB8010E94C01137C0CE01B3
:101860000E9415068C018EE090E00E948422F82EE2
:10187000E92EB8010E94FE1329C0CE010E94150670
:101880008C018AE090E00E948422F82EE92EB801B3
:101890000E9448101BC0CE010E9415068C018EE0EC
:1018A00090E00E948422F82EE92EB8010E94BD101B
:1018B0000DC0CE010E9415068C018AE090E00E94C6
:1018C0008422F82EE92EB8010E944011F501E05F54
:1018D000FB4FF082E182CE010E94FE05F501E05F40
:1018E000FB4F8823A1F0E080F180D701ED91FC91BE
:1018F000C480D580CE010E94F2058C01CE010E94E9
:10190000F705482FC701B801F601099512C00081FB
:101910001181D801ED91FC91E280F380CE010E940B
:10192000E805FC01C80189019A01AB01BF01F7017B
:10193000099580E1E82E84E0F82EEA0CFB1CF70103
:10194000A081B1818501085F1D4FED91FC91119738
:101950000190F081E02DCD01B8010995C5018A5FA4
:101960009D4FB80145E050E00E94770FD7018D915F
:101970009C910E948122C5010E94540FCE0164E017
:1019800070E00E94D405CE010E942507C5010E9487
:101990005C0FDF91CF911F910F91FF90EF90DF903F
:1019A000CF90BF90AF9008958F929F92AF92BF92C9
:1019B000CF92DF92EF92FF920F931F93DF93CF931B
:1019C000CDB7DEB7AB970FB6F894DEBF0FBECDBF75
:1019D0008C01982E812E0E94B50E5C01009709F4AF
:1019E000C9C0C8010E94540F41E0C42ED12C3CE074
:1019F000E32E34E0F32EE00EF11E84E0C816D1048D
:101A000009F445C0A5E0CA16D10474F4B2E0CB16BF
:101A1000D10439F1E3E0CE16D10464F5F1E0CF163C
:101A2000D10409F063C014C086E0C816D10409F4DB
:101A300040C0A6E0CA16D1049CF1B7E0CB16D10491
:101A400009F440C0E8E0CE16D10409F04FC043C00D
:101A50008CE090E00E948422182F092F0E945E17CC
:101A600011C08CE090E00E948422182F092F0E9460
:101A7000B71B39C08EE090E00E948422182F092FF6
:101A80000E949419D7011C9311960C932FC088E0E3
:101A900090E00E948422182F092F0E94E11423C095
:101AA0008CE090E00E948422182F092F0E94911848
:101AB000E9CF8CE090E00E948422182F092F0E9429
:101AC000E91A11C088E090E00E948422182F092FA3
:101AD0000E94A615D7CF8CE090E00E948422182F98
:101AE000092F0E946316F70110830183D701ED913E
:101AF000FC91A081B1812D913C91CF01B501F901FB
:101B000009958823F9F08CEB95E00E94DC098E01A1
:101B10000F5F1F4FC8010E94D105F701A081B1815D
:101B2000ED91FC9111970280F381E02DCD01B80178
:101B30000995C8010E942507D7018D919C910E94AB
:101B4000812210C0C5010E94840EF701808191811D
:101B50000E9481220894C11CD11CF9E0CF16D10447
:101B600009F04BCF892D982D0E94480F892D982D73
:101B70000E945C0F84E096E00E949805882309F497
:101B800053C0892D982D0E94540F5E010894A11C0A
:101B9000B11CC5010E94D105C50161E070E00E9441
:101BA000D405C50160E070E00E94DC05C50167EE68
:101BB00073E00E94E4058CEB95E00E94BB09AB0149
:101BC000BC016A017B01FF0CCC08DC2C7601C5014D
:101BD0008A019B014C2D5C2D6C2D7C2D0E940106F1
:101BE000C5010E942507C5016FEE73E00E94E40560
:101BF0008CEB95E00E94B509AB01BC016A017B0149
:101C0000FF0CCC08DC2C7601C5018A019B014C2D10
:101C10005C2D6C2D7C2D0E940106C5010E942507BC
:101C2000892D982D0E945C0FAB960FB6F894DEBFFD
:101C30000FBECDBFCF91DF911F910F91FF90EF901D
:101C4000DF90CF90BF90AF909F908F9008950F93AB
:101C50001F938C018A5F9D4F64E070E00E94AE0F7D
:101C6000C8010E945C0F1F910F9108950F931F935D
:101C70008C010E946A0FC8018A5F9D4F0E94760FF7
:101C8000C801885F9D4F0E94480E1F910F910895D3
:101C9000FC01EE5FFD4F11821082129212920895A4
:101CA000DC01AE5FBD4F2D913C9111972F3F310567
:101CB00014F080E00895F901EE0FFF1FE80FF91FFF
:101CC000718360832F5F3F4F2D933C93FC01E05065
:101CD000FE4F8081918101969183808381E00895F8
:101CE000FC01EE5FFD4F808191810895FC01E05081
:101CF000FE4F808191810895FC01EE5FFD4F1182BE
:101D00001082129212920895FC01EE5FFD4F118233
:101D100010820895FC0140E0DC01A050BE4FEE5F50
:101D2000FD4F208131818D919C91281739070CF44A
:101D300041E0842F0895DC01AE5FBD4F2D913C91B1
:101D40001197F901EE0FFF1FE80FF91F80819181B4
:101D50002F5F3F4F2D933C930895FB01EE0FFF1F24
:101D6000E80FF91F808191810895FC01818188230A
:101D700019F420E030E003C09F012E5F3F4FC901FE
:101D80000895CF92DF92EF92FF920F931F93CF931C
:101D9000DF938C01FC018181882309F067C00E94D8
:101DA000C31E609318067093190680931A069093C9
:101DB0001B06209110063091110640911206509199
:101DC00013066B017C01C21AD30AE40AF50AA701C3
:101DD0009601C0921406D0921506E0921606F09273
:101DE0001706609310067093110680931206909365
:101DF0001306293F84E2380781E0480780E058074E
:101E0000A8F5F80180812938FEE03F07F0E04F0790
:101E1000F0E05F07E0F08823B1F0E8012296CE0100
:101E20000E94760E181619060CF560911406709132
:101E30001506CE010E94500ECE010E94840E81E054
:101E4000F801818313C081E0F80180830FC08823EB
:101E500069F0E8012296CE01B6010E94500E882357
:101E600029F4CE010E947C0EF8011082DF91CF91FF
:101E70001F910F91FF90EF90DF90CF900895809188
:101E80000E0690910F06009711F00E94C10E089562
:101E90000F931F938C0102960E947C0EF801108212
:101EA00011821F910F91089580E00E94001E1092F0
:101EB0000F0610920E06089590930F0680930E065B
:101EC0000E94480F80E06FE37FE041E050E00E9415
:101ED000DD1D08950F931F938C0102960E94480EFA
:101EE000F801108211821F910F9108950895CF92E9
:101EF000DF92EF92FF920F931F93CF93DF937C01BA
:101F0000EB016A0100E010E01DC0CE010E94700EDE
:101F100080FD04C0F701808161E003C0F70180818A
:101F200060E00E943520CE010E949B0E0E94E91EB7
:101F3000CE010E948A0E882341F7CE010E94840EB2
:101F40000F5F1F4F0C151D059CF3DF91CF911F9163
:101F50000F91FF90EF90DF90CF9008950F931F9314
:101F60008C01862FF8016083718361E00E94F61F67
:101F7000F801808160E00E9435201F910F91089543
:101F8000FC0185E191E091838083128213821482A7
:101F9000158277836683660F771F71876087089540
:101FA0000F931F93A801B901FC010283538324837B
:101FB00075831F910F9108950895EF92FF920F93EB
:101FC0001F93CF93DF938C01EB01CB010E947C0E1A
:101FD000CE0160E971E00E94500ECE0168E572E02A
:101FE0000E94500ECE0160E971E00E94500EF8018F
:101FF00082819381A481B58135E1880F991FAA1F41
:10200000BB1F3A95D1F782839383A483B583EE24D3
:10201000FF24F80182819381A481B581B7FF09C0B3
:1020200060857185CE010E94500EF801668177812E
:1020300009C0F80166817781CE010E94500EF80137
:1020400060857185CE010E94500EF80182819381D6
:10205000A481B581880F991FAA1FBB1F8283938318
:10206000A483B5830894E11CF11CFBE0EF16F10496
:1020700081F6CE0168E77DE20E94500ECE010E94FB
:10208000840EDF91CF911F910F91FF90EF900895F3
:10209000FC018FE191E0918380831282138214828C
:1020A000158277836683660F771F7187608708952F
:1020B0000F931F93A801B901FC010283538324836A
:1020C00075831F910F9108950895EF92FF920F93DA
:1020D0001F93CF93DF93EC018B01CB010E947C0E09
:1020E0008A819B81AC81BD81BA2FA92F982F882727
:1020F0008A839B83AC83BD83EE24FF248A819B81EA
:10210000AC81BD81B7FF08C068857985C8010E9490
:10211000500E6E817F8107C06E817F81C8010E9451
:10212000500E68857985C8010E94500E8A819B8176
:10213000AC81BD81880F991FAA1FBB1F8A839B8317
:10214000AC83BD830894E11CF11C88E1E816F1041E
:10215000A9F6C80168EB7BE00E94500EC80168E553
:102160007BE10E94500EC8010E94840EDF91CF9146
:102170001F910F91FF90EF900895FC0189E291E08B
:1021800091838083128213821482158216821782B1
:102190001086118673876287660F771F758764873D
:1021A00008950F931F93FC010283138324833583C7
:1021B00046835783608771871F910F910895089513
:1021C000CF92DF92EF92FF920F93CF93DF93EC01C8
:1021D0007B01CB010E947C0E2A813B814C815D8179
:1021E0006E817F818885998500E10E943A012A836A
:1021F0003B834C835D836E837F8388879987CC2460
:10220000DD24898587FD03C06A857B8502C06C85D6
:102210007D85C7010E94500E6A857B85C7010E949B
:10222000500E2A813B814C815D816E817F81888542
:10223000998501E00E943A012A833B834C835D83A8
:102240006E837F83888799870894C11CD11C8FE295
:10225000C816D104B1F66C857D85C7010E94500E69
:10226000C70168E273E20E94500EC7010E94840E0B
:10227000DF91CF910F91FF90EF90DF90CF90089575
:10228000FC0183E391E091838083128213821482A4
:10229000158277836683CB01880F991F860F971F5E
:1022A0009187808708950F931F93A801B901FC01BE
:1022B00002835383248375831F910F91089508959A
:1022C000EF92FF920F931F93CF93DF93EC018B015B
:1022D000CB010E947C0E8A819B81AC81BD81BA2F8B
:1022E000A92F982F88278A839B83AC83BD83EE24F4
:1022F000FF248A819B81AC81BD81B7FF08C06885BE
:102300007985C8010E94500E6E817F8107C06E8161
:102310007F81C8010E94500E68857985C8010E949E
:10232000500E8A819B81AC81BD81880F991FAA1FA5
:10233000BB1F8A839B83AC83BD830894E11CF11C83
:1023400088E1E816F104A9F66E817F81C8010E9438
:10235000500E8E819F81BC0145E0660F771F4A9524
:10236000E1F7681B790BC8010E94500EC8010E945A
:10237000840EDF91CF911F910F91FF90EF90089500
:10238000FC018DE391E09183808312821382148299
:10239000158283E191E09783868389EC94E09187AD
:1023A000808708950F931F93A801B901FC01028350
:1023B0005383248375831F910F9108950895EF929D
:1023C000FF920F931F938C017B01FC016681778143
:1023D000C7010E94500EF80166817781C7010E94F3
:1023E000500EF80166817781C7010E94500EF801F6
:1023F00060857185C7010E94500E1F910F91FF905B
:10240000EF900895EF92FF920F931F938C017B0141
:10241000FC0166817781C7010E94500EF80160853A
:102420007185C7010E94500EF80166817781C7014E
:102430000E94500EF80166817781C7010E94500EFC
:102440001F910F91FF90EF900895EF92FF920F93DD
:102450001F93CF93DF93EC018B01CB010E947C0E85
:102460006E817F81C8010E94500E68857985660F54
:10247000771FC8010E94500EEE24FF248A819B81A1
:10248000AC81BD81B7FF05C0CE01B8010E94021228
:1024900004C0CE01B8010E94DF118A819B81AC810A
:1024A000BD81880F991FAA1FBB1F8A839B83AC83A2
:1024B000BD830894E11CF11C80E2E816F104F1F6FA
:1024C0006E817F81C8010E94500EC80160E177E2F1
:1024D0000E94500EC8010E94840EDF91CF911F917F
:1024E0000F91FF90EF900895FC0187E491E09183B4
:1024F00080831282138214821582168217821086BC
:102500001186128613861486158616861786108AFB
:1025100080E8818B88E191E0938B828B82EE94E05E
:10252000958B848B08950F931F93FC010283138373
:102530002483358346835783608771871F910F916A
:1025400008950895EF92FF920F931F938C017B01E2
:10255000FC0162897389C7010E94500EF8016289EB
:102560007389C7010E94500EF80162897389C701FF
:102570000E94500EF80162897389C7010E94500EB3
:102580001F910F91FF90EF900895EF92FF920F939C
:102590001F938C017B01FC0162897389C7010E9432
:1025A000500EF80162897389C7010E94500EF8012C
:1025B00062897389C7010E94500EF8016489758988
:1025C000C7010E94500E1F910F91FF90EF90089548
:1025D000EF92FF920F931F938C017B01FC016289A4
:1025E0007389C7010E94500EF80164897589C7017B
:1025F0000E94500EF80162897389C7010E94500E33
:10260000F80162897389C7010E94500E1F910F91D2
:10261000FF90EF9008952F923F925F926F927F927A
:102620008F929F92AF92BF92CF92DF92EF92FF92E2
:102630000F931F93CF93DF93EC016B01CB010E94AB
:102640007C0E6A897B89C6010E94500E8A899B890B
:10265000BC0133E0660F771F3A95E1F7680F791FE9
:10266000C6010E94500E1A81BB80AC809D808E8076
:102670007F8068845984212F3B2D4A2D592D682D48
:10268000772D862D952D00E20E94BB00232B242B55
:10269000252B262B272B282B292B31F420E2E22E69
:1026A000F12C2224332406C09BE1E92EF12C86E391
:1026B000282E312C212F3B2D4A2D592D682D772D79
:1026C000862D952D0E2D0E943A012A833B834C8343
:1026D0005D836E837F8388879987EA81FB81AC81E4
:1026E000BD810E811F81B884A9848A859B852C8534
:1026F0003D854E855F8568897989E214F30459F533
:102700008E239F232A233B23402351236B217A21AD
:10271000892B822B832B842B852B862B872BA1F552
:10272000CE01B6010E94A2122A813B814C815D81BB
:102730006E817F818885998501E00E943A012A8314
:102740003B834C835D836E837F838887998708945E
:10275000E11CF11C19C08E239F232A233B23402315
:1027600051236B217A21892B822B832B842B852B60
:10277000862B872B29F0CE01B6010E94E81204C0F7
:10278000CE01B6010E94C5122A813B814C815D8138
:102790006E817F818885998501E00E943A012A83B4
:1027A0003B834C835D836E837F83888799870894FE
:1027B000E11CF11C80E4E816F1040CF48ECF6A8968
:1027C0007B89C6010E94500EC60160E177E20E943B
:1027D000500EC6010E94840EDF91CF911F910F9180
:1027E000FF90EF90DF90CF90BF90AF909F908F9031
:1027F0007F906F905F903F902F900895FC0181E54E
:1028000091E091838083128213821482158280E981
:1028100091E09783868380E293E091878087158695
:1028200008950895FC017387628744870895FF9295
:102830000F931F93CF93DF938C01F62EEA01FC01D7
:102840002585332727FD3095862F992787FD90957D
:10285000817090702817390719F06085718509C05B
:10286000F80166817781CA010E94500EF8016681E5
:102870007781CE010E94500EF1E0FF22F801F5862B
:10288000DF91CF911F910F91FF900895CF92DF922A
:10289000FF920F931F938C01F62E6A010E9417146A
:1028A000F094C8016F2DA6010E9417141F910F917B
:1028B000FF90DF90CF900895AF92BF92CF92DF92BA
:1028C000EF92FF920F931F93CF93DF937C016B01E5
:1028D000CB010E947C0EC1E0D0E0D70118966D912B
:1028E0007C911997C6010E94500E2196C032D105E5
:1028F000A1F700E010E038C00197D7011A96ED91DA
:10290000FC911B970817190741F4E00FF11F208174
:1029100022952F70AA24BB2407C0E00FF11F20814D
:10292000F9CFD595C7952C2FF701848590E00197B5
:102930000817190721F4F4E0AF16B10499F0C22F7B
:10294000D0E020FF03C0C70161E002C0C70160E022
:10295000A6010E9446140894A11CB11C88E0A81688
:10296000B104F9F60F5F1F4FD7011C968C9190E0D0
:10297000081719070CF2C6010E94760E80FD06C0EA
:10298000F70166817781C6010E94500ED701169625
:102990006D917C91179784E0660F771F8A95E1F718
:1029A000C6010E94500EC6010E94840EDF91CF9195
:1029B0001F910F91FF90EF90DF90CF90BF90AF905D
:1029C0000895FC018BE591E091838083138212824C
:1029D00008958F929F92AF92BF92CF92DF92EF9223
:1029E000FF920F931F937C018B01CB0164E00E9447
:1029F0001206F70162817381C8010E941906C8019D
:102A000061E070E00E94D405C80160E070E00E94BF
:102A1000DC05C8016BE070E00E94E405F7018480EA
:102A20009580A680B780C8018401950140E050E000
:102A300060E070E00E9401061F910F91FF90EF90FF
:102A4000DF90CF90BF90AF909F908F900895CF92DE
:102A5000DF92EF92FF920F931F93CF93DF938C013E
:102A60007B01CB010E94760E4A9711F020E064C0F2
:102A70008AE491E0F801938382831482158216829E
:102A80001782C7010E949B0EC7010E949B0EC701BF
:102A90000E949B0E41E0C42ED12CC7010E949B0EC8
:102AA000EC01C7010E949B0EC73DD10520F0F1E06B
:102AB000CE3BDF07D0F082E0C132D80780F0C850AB
:102AC000D34068F4F80184819581A681B78101968D
:102AD000A11DB11D84839583A683B78306C0F80129
:102AE000148215821682178214C0F80184819581A0
:102AF000A681B781880F991FAA1FBB1F8483958366
:102B0000A683B7830894C11CD11CFCE0CF16D10466
:102B100021F6F80184819581A681B781B695A795A4
:102B20009795879584839583A683B78320E0009744
:102B3000A105B10509F021E0822FDF91CF911F910E
:102B40000F91FF90EF90DF90CF900895FC0183E606
:102B500091E0918380831382128208958F929F92D5
:102B6000AF92BF92CF92DF92EF92FF920F931F939B
:102B70007C018B01CB0167E00E941206F7016281A4
:102B80007381C8010E941906C80161E070E00E94CB
:102B9000D405C80160E070E00E94DC05C8016BE06C
:102BA00070E00E94E405F70184809580A680B780DC
:102BB000C8018401950140E050E060E070E00E94AF
:102BC00001061F910F91FF90EF90DF90CF90BF9083
:102BD000AF909F908F900895CF92DF92EF92FF92E7
:102BE0000F931F93CF93DF938C016B01CB010E9456
:102BF000760EC29711F020E05CC084EF91E0F801FE
:102C000093838283148215821682178241E0E42E18
:102C1000F12CC6010E949B0EEC01C6010E949B0E86
:102C2000F1E0C039DF0720F082E0C935D807D0F0E5
:102C3000E3E0C438DE0780F0CD54D44068F4F801F6
:102C400084819581A681B7810196A11DB11D8483E0
:102C50009583A683B78306C0F80114821582168275
:102C6000178214C0F80184819581A681B781880FED
:102C7000991FAA1FBB1F84839583A683B7830894DB
:102C8000E11CF11CF9E1EF16F10419F6F801848159
:102C90009581A681B781B695A795979587958483E9
:102CA0009583A683B78320E00097A105B10509F0BD
:102CB00021E0822FDF91CF911F910F91FF90EF9034
:102CC000DF90CF900895FC018BE691E091838083A3
:102CD000138212820895CF92DF92EF92FF920F93A8
:102CE0001F937C016B01CB0168E00E941206F70183
:102CF00062817381C6010E941906C60161E070E01D
:102D00000E94D405C60160E070E00E94DC05C601A7
:102D10006BE070E00E94E405F701048115812681D3
:102D200037814085518562857385C6010E94010601
:102D30001F910F91FF90EF90DF90CF900895CF9269
:102D4000DF92EF92FF920F931F93CF93DF93EC01EB
:102D50006B01CB010E94760E8036910511F0E0E008
:102D6000A3C08CE291E09B838A831C821D821E8219
:102D70001F82188619861A861B8681E0E82EF12CA0
:102D8000C6010E949B0E8C01C6010E949B0E023D53
:102D9000110528F081E00738180708F44DC081E0DC
:102DA0000E3F180708F43FC0035B1240E0F58C812A
:102DB0002D813E814F816885E985AA851B85B82FC5
:102DC000BF5F91E0B81708F090E0F92FF20F81E0B3
:102DD000F21708F080E0782F730F81E0731708F086
:102DE00080E0582F540F81E0541708F080E0382F0E
:102DF000360F81E0361708F080E0282F2E0F81E093
:102E00002E1708F080E0982F9A0F81E09A1708F0AB
:102E100080E0810FBC83FD837E835F8338872987B1
:102E20009A878B8709C01C821D821E821F8218868A
:102E300019861A861B861BC02C813D814E815F81BD
:102E4000688579858A859B8501E00E943A012C83FB
:102E50003D834E835F83688779878A879B87089441
:102E6000E11CF11C81E3E816F10409F089CF2C8103
:102E70003D814E815F81688579858A859B8501E0EA
:102E80000E94BB002C833D834E835F8368877987D4
:102E90008A879B87E0E0232B242B252B262B272BAF
:102EA000282B292B09F0E1E08E2FDF91CF911F9184
:102EB0000F91FF90EF90DF90CF900895FC0183E792
:102EC00091E091838083138212820895CF92DF92E2
:102ED000EF92FF920F931F937C016B01CB0161E096
:102EE0000E941206F70162817381C6010E941906D1
:102EF000C60161E070E00E94D405C60160E070E0A8
:102F00000E94DC05C6016BE070E00E94E405F70159
:102F100004811581268137814085518562857385BD
:102F2000C6010E9401061F910F91FF90EF90DF9064
:102F3000CF9008954F925F926F927F928F929F925F
:102F4000AF92BF92CF92DF92EF92FF920F931F93B7
:102F5000CF93DF93EC017B01CB010E94760EC297E9
:102F600011F0E0E0CCC0C7010E94760EBC016150B8
:102F70007040C7010E94AD0E6FE170E00E943925DC
:102F80008B017B836A831C821D821E821F821886AE
:102F900019861A861B86B801882777FD8095982F99
:102FA0000E942B2420E030E040E05FE30E94B72441
:102FB0000E94FD232801461A570A3B01600E711E2C
:102FC0009801220F331F200F311F4901861A970ADB
:102FD0005B01A20EB31ECC24DD24C7010E949B0E10
:102FE0008C01C7010E949B0E0415150520F0601688
:102FF000710608F04CC00815190508F43FC0A0166A
:10300000B106E0F18C812D813E814F816885E98593
:10301000AA851B85B82FBF5F91E0B81708F090E034
:10302000F92FF20F81E0F21708F080E0782F730F8C
:1030300081E0731708F080E0582F540F81E0541797
:1030400008F080E0382F360F81E0361708F080E076
:10305000282F2E0F81E02E1708F080E0982F9A0F6E
:1030600081E09A1708F080E0810FBC83FD837E83A6
:103070005F83388729879A878B8709C01C821D82C6
:103080001E821F82188619861A861B861BC02C81F9
:103090003D814E815F81688579858A859B8501E0C8
:1030A0000E943A012C833D834E835F836887798732
:1030B0008A879B870894C11CD11C88E1C816D1045B
:1030C00009F08BCF2C813D814E815F8168857985A8
:1030D0008A859B8501E00E94BB002C833D834E8343
:1030E0005F83688779878A879B87E0E0232B242B7F
:1030F000252B262B272B282B292B09F0E1E08E2FBF
:10310000DF91CF911F910F91FF90EF90DF90CF90C3
:10311000BF90AF909F908F907F906F905F904F90F7
:103120000895FC018BE791E09183808313821282E2
:103130000895CF92DF92EF92FF920F931F937C013D
:103140006B01CB0165E00E941206F7016281738179
:10315000C6010E941906C60161E070E00E94D40514
:10316000C60160E070E00E94DC05C6016BE070E023
:103170000E94E405F701048115812681378140858D
:10318000518562857385C6010E9401061F910F91CA
:10319000FF90EF90DF90CF900895CF92DF92EF9263
:1031A000FF920F93CF93DF93EC017B01CB010E9441
:1031B000760E8438910511F0E0E0ADC01C821D82CE
:1031C0001E821F82188619861A861B86C7010E94D6
:1031D0009B0EC7010E949B0EC7010E949B0ECC2430
:1031E000DD24C7010E949B0E813C910508F449C073
:1031F00021E08636920708F44DC024E08737920715
:1032000008F43FC08C519540E0F58C812D813E81C2
:103210004F816885E985AA850B85B82FBF5F91E04E
:10322000B81708F090E0F92FF20F81E0F21708F0DC
:1032300080E0782F730F81E0731708F080E0582F3B
:10324000540F81E0541708F080E0382F360F81E0EA
:10325000361708F080E0282F2E0F81E02E1708F097
:1032600080E0982F9A0F81E09A1708F080E0800F95
:10327000BC83FD837E835F83388729879A878B870A
:1032800009C01C821D821E821F82188619861A861A
:103290001B8624C02C813D814E815F8168857985A4
:1032A0008A859B8501E00E943A012C833D834E83F1
:1032B0005F83688779878A879B87C7010E949B0EF7
:1032C000C7010E949B0EC7010E949B0E0894C11C5F
:1032D000D11C80E2C816D10409F083CF2C813D8136
:1032E0004E815F81688579858A859B8501E00E9492
:1032F000BB002C833D834E835F83688779878A87F1
:103300009B87E0E0232B242B252B262B272B282BF8
:10331000292B09F0E1E08E2FDF91CF910F91FF90E3
:10332000EF90DF90CF900895FC0183E891E09183C6
:103330008083138212820895CF92DF92EF92FF92E0
:103340000F931F937C016B01CB0163E00E94120677
:10335000F70162817381C6010E941906C60161E00E
:1033600070E00E94D405C60160E070E00E94DC05B8
:10337000C6016BE070E00E94E405F701048115814D
:10338000268137814085518562857385C6010E94FB
:1033900001061F910F91FF90EF90DF90CF9008955D
:1033A0007F928F929F92AF92BF92CF92DF92EF92D5
:1033B000FF920F931F93CF93DF93EC015B01CB013F
:1033C0000E94760E8438910529F08439910509F020
:1033D000F0C003C080E290E002C084E290E09D87EC
:1033E0008C871C821D821E821F82188619861A866F
:1033F0001B8688E191E09B838A83C5010E949B0E16
:10340000C5010E949B0E772481E0882E912CADC0CF
:10341000C5010E949B0E6C01C5010E949B0E8C0190
:10342000C5010E949B0E7C01C5010E949B0E24E6F3
:10343000C216D10408F4BDC02DECC21621E0D2069C
:1034400008F0B7C024E6E216F10408F4B2C02DEC8F
:10345000E21621E0F20608F0ACC00436110508F4CB
:10346000A8C025E0043C120708F0A3C084369105EB
:1034700008F49FC025E0843C920708F09AC023E03E
:10348000093E120720F08C8181608C830FC00C5C98
:10349000114008F08EC021E08C3C920718F477248C
:1034A000739404C0895E934008F483C08CE188164D
:1034B000910409F044C08C859D857720D9F08497CC
:1034C000A1F42C813D814E815F81688579858A8553
:1034D0009B8501E00E943A012C833D834E835F83EC
:1034E000688779878A879B8703C08C8181608C83FA
:1034F000772425C0849719F52C813D814E815F8109
:10350000688579858A859B8520FF05C001E00E943A
:103510003A0121600CC021602C833D834E835F8380
:10352000688779878A879B8701E00E943A012C830C
:103530003D834E835F83688779878A879B872C8149
:103540003D814E815F81688579858A859B8501E013
:103550000E943A012C833D834E835F83688779877D
:103560008A879B870894811C911C8C859D85881572
:1035700099050CF04DCF2C813D814E815F8168858E
:1035800079858A859B8501E00E94BB002C833D8361
:103590004E835F83688779878A879B87E0E0232B48
:1035A000242B252B262B272B282B292B19F0E1E068
:1035B00001C0E0E08E2FDF91CF911F910F91FF901E
:1035C000EF90DF90CF90BF90AF909F908F907F90C3
:1035D0000895FC018BE891E091838083138212822D
:1035E00010921E06089590911C0690FD12C08091C5
:1035F0001F06A82FB0E0FD01E05EF94FE0816623D1
:1036000011F480E001C080E8A05EB94FE695E82B98
:10361000EC93892F8F5F80931C0690E024E09595B2
:1036200087952A95E1F780931F0685E080931E0613
:10363000089520911D06622760931D060E94F31ACB
:103640000895EF92FF920F931F937C018B01CB01A2
:1036500066E00E941206F70162817381C8010E9430
:103660001906C80161E070E00E94D405C80160E05D
:1036700070E00E94DC05C8016BE070E00E94E40588
:1036800040911F064F5FC80160E276E00E948A0702
:10369000C8010E94FA0510921D0610921F06109292
:1036A0001C0610921E061F910F91FF90EF90089537
:1036B000DF92EF92FF920F931F93CF93DF938C01D2
:1036C0007B01DD24D39442C0C7010E949B0EEC0114
:1036D000885C9040885E934020F590E082E0CC3B8F
:1036E000D80708F091E080911E06813031F18130D9
:1036F00018F0853059F517C080911D06992321F0E7
:103700008F5F80931D0622C08F3118F010921D0626
:103710000CC010921D0610921F0610921C061092EB
:103720001E0680E01CC0992319F4D0921E060EC01C
:10373000C80161E00E94191B09C0992351F7C80113
:1037400060E00E94191BF801D383C28390911C068C
:10375000983808F4B9CF80E0983809F481E0DF9117
:10376000CF911F910F91FF90EF90DF900895FC0192
:1037700083E991E091838083138212820895CF922E
:10378000DF92EF92FF920F931F937C016B01CB01AD
:1037900062E00E941206F70162817381C6010E94F5
:1037A0001906C60161E070E00E94D405C60160E020
:1037B00070E00E94DC05C6016BE070E00E94E40549
:1037C000F701048115812681378140855185628505
:1037D0007385C6010E9401061F910F91FF90EF9023
:1037E000DF90CF900895CF92DF92EF92FF920F93E8
:1037F000CF93DF93EC016B0188EE93E09B838A8388
:103800001C821D821E821F82188619861A861B86BC
:10381000EE24FF24C6010E949B0E26E0843A920704
:1038200028F028E08D3F920708F451C022E08C3B3D
:10383000920708F443C08551954008F03FC08C8141
:103840002D813E814F816885E985AA850B85B82F3A
:10385000BF5F91E0B81708F090E0F92FF20F81E018
:10386000F21708F080E0782F730F81E0731708F0EB
:1038700080E0582F540F81E0541708F080E0382F73
:10388000360F81E0361708F080E0282F2E0F81E0F8
:103890002E1708F080E0982F9A0F81E09A1708F011
:1038A00080E0800FBC83FD837E835F833887298718
:1038B0009A878B87C6010E949B0E09C01C821D82BD
:1038C0001E821F82188619861A861B861BC02C81B1
:1038D0003D814E815F81688579858A859B8501E080
:1038E0000E943A012C833D834E835F8368877987EA
:1038F0008A879B870894E11CF11C84E2E816F10496
:1039000009F088CF2C813D814E815F816885798562
:103910008A859B8501E00E94BB002C833D834E83FA
:103920005F83688779878A879B87E0E0232B242B36
:10393000252B262B272B282B292B09F0E1E08E2F76
:10394000DF91CF910F91FF90EF90DF90CF9008958E
:103950000F931F93CF93DF93BC018230910510F436
:1039600062E070E0E091E506F091E60640E050E0AC
:10397000A0E0B0E024C08081918186179707D0F045
:103980008617970771F482819381109729F0139617
:103990009C938E9312972CC09093E6068093E50635
:1039A00027C04115510519F08417950718F48D01AA
:1039B000AC01EF01DF01828193819C01F901309715
:1039C000D1F641155105F9F0CA01861B970B8430D9
:1039D000910580F48A819B810115110521F0F80180
:1039E0009383828304C09093E6068093E506FE01EC
:1039F000329645C0FE01E80FF91F6193719302975B
:103A0000998388833CC08091E3069091E406892BDA
:103A100041F480910D0190910E019093E406809302
:103A2000E30640910F01509110014115510541F4F9
:103A30004DB75EB780910B0190910C01481B590B5B
:103A40002091E3063091E40624173507B0F4CA014B
:103A5000821B930B8617970780F0AB014E5F5F4F79
:103A60008417950750F0420F531F5093E40640937C
:103A7000E306F9016193719302C0E0E0F0E0CF0149
:103A8000DF91CF911F910F910895CF93DF939C0108
:103A9000009709F48FC0EC0122971B821A82609173
:103AA000E5067091E6066115710581F488819981BA
:103AB000820F931F2091E3063091E40628173907FF
:103AC00039F5D093E406C093E30674C0DB0140E00F
:103AD00050E0AC17BD0708F1BB83AA83FE0121911A
:103AE0003191E20FF31FAE17BF0779F48D919C91CE
:103AF0001197280F391F2E5F3F4F39832883129665
:103B00008D919C9113979B838A834115510571F484
:103B1000D093E606C093E5064DC012968D919C9118
:103B20001397AD01009711F0DC01D3CFDA011396A2
:103B3000DC93CE931297FA0121913191E20FF31F9A
:103B4000CE17DF0769F488819981280F391F2E5F0E
:103B50003F4FFA01318320838A819B819383828343
:103B6000E0E0F0E0DB0112968D919C9113970097B5
:103B700019F0BC01FD01F6CFAB014E5F5F4FDB01D9
:103B80008D919C91840F951F2091E3063091E4065E
:103B90002817390779F4309729F41092E606109225
:103BA000E50602C013821282425050405093E40650
:103BB0004093E306DF91CF910895823000F5E82F1E
:103BC000F0E0EE0FFF1FE75CF94F718360838823FD
:103BD00019F08130A1F408C0809169008C7F842B9A
:103BE00080936900E89A089580916900440F551FF9
:103BF000440F551F837F842B80936900E99A0895B1
:103C0000823080F4882319F0813021F402C0E898D2
:103C100001C0E998E82FF0E0EE0FFF1FE75CF94FD5
:103C20001182108208951F920F920FB60F921124E5
:103C30002F933F934F935F936F937F938F939F93B4
:103C4000AF93BF93EF93FF938091390690913A061B
:103C5000892B29F0E0913906F0913A060995FF91F8
:103C6000EF91BF91AF919F918F917F916F915F91F4
:103C70004F913F912F910F900FBE0F901F9018956D
:103C80001F920F920FB60F9211242F933F934F93D1
:103C90005F936F937F938F939F93AF93BF93EF93B4
:103CA000FF9380913B0690913C06892B29F0E0918F
:103CB0003B06F0913C060995FF91EF91BF91AF91C2
:103CC0009F918F917F916F915F914F913F912F9134
:103CD0000F900FBE0F901F9018951F920F920FB666
:103CE0000F9211242F933F938F939F93AF93BF9382
:103CF0008091410690914206A0914306B0914406FE
:103D0000309145060196A11DB11D232F2D5F2D3742
:103D100020F02D570196A11DB11D209345068093DB
:103D2000410690934206A0934306B09344068091C7
:103D30003D0690913E06A0913F06B0914006019647
:103D4000A11DB11D80933D0690933E06A0933F06B2
:103D5000B0934006BF91AF919F918F913F912F916A
:103D60000F900FBE0F901F9018958FB7F894209169
:103D700041063091420640914306509144068FBF60
:103D8000B901CA0108959FB7F89420913D0630917A
:103D90003E0640913F065091400686B5A89B06C05E
:103DA0008F3F21F02F5F3F4F4F4F5F4F9FBF542FEB
:103DB000432F322F2227280F311D411D511D82E034
:103DC000220F331F441F551F8A95D1F7B901CA012D
:103DD0000895019739F0880F991F880F991F02974E
:103DE0000197F1F70895789484B5826084BD84B515
:103DF000816084BD85B5826085BD85B5816085BDE6
:103E0000EEE6F0E0808181608083E1E8F0E01082FE
:103E1000808182608083808181608083E0E8F0E03F
:103E2000808181608083E1EBF0E080818460808329
:103E3000E0EBF0E0808181608083EAE7F0E0808160
:103E400084608083808182608083808181608083C0
:103E50008081806880831092C1000895EF92FF9264
:103E60000F931F93CF93DF937B018C013FB7F8949F
:103E700080913D0690913E06A0913F06B09140068C
:103E800026B5A89B05C02F3F19F00196A11DB11DB5
:103E90003FBFBA2FA92F982F8827820F911DA11DF0
:103EA000B11D52E0880F991FAA1FBB1F5A95D1F769
:103EB000EC0130C00E94FC233FB7F89480913D068E
:103EC00090913E06A0913F06B091400626B5A89B72
:103ED00005C02F3F19F00196A11DB11D3FBFBA2F9C
:103EE000A92F982F8827820F911DA11DB11D32E0A7
:103EF000880F991FAA1FBB1F3A95D1F78C1B9D0BEA
:103F0000885E9340B8F20894E108F10801091109AC
:103F1000C851DC4FE114F1040105110559F6DF9198
:103F2000CF911F910F91FF90EF9008951F93CF9322
:103F3000DF93182FEB0161E00E94F61F209709F430
:103F40004AC0CF3FD10509F449C0E12FF0E0ED5F51
:103F5000FE4F84918330C1F0843028F4813051F0D9
:103F60008230B1F50CC0863019F1873049F18430C8
:103F700079F514C084B5806884BDC7BD33C084B5ED
:103F8000806284BDC8BD2EC080918000806880930F
:103F90008000D0938900C093880024C08091800065
:103FA000806280938000D0938B00C0938A001AC0F7
:103FB0008091B00080688093B000C093B30012C0BD
:103FC0008091B00080628093B000C093B4000AC0BA
:103FD000C038D1051CF4812F60E002C0812F61E060
:103FE0000E943520DF91CF911F910895CF93DF93E9
:103FF000482F50E0CA0181519F4FFC013491455236
:104000005F4FFA018491882369F190E0880F991F2E
:10401000FC01E354FF4FA591B491FC01E953FF4F1C
:10402000C591D491662351F42FB7F8948C91932FB6
:10403000909589238C93888189230BC0623061F429
:104040002FB7F8948C91932F909589238C93888126
:10405000832B88832FBF06C09FB7F8948C91832B46
:104060008C939FBFDF91CF910895482F50E0CA01F4
:104070008D5F9E4FFC012491CA0181519F4FFC012D
:10408000949145525F4FFA013491332309F440C0B3
:10409000222351F1233071F0243028F42130A1F093
:1040A000223011F514C02630B1F02730C1F0243091
:1040B000D9F404C0809180008F7703C08091800084
:1040C0008F7D8093800010C084B58F7702C084B547
:1040D0008F7D84BD09C08091B0008F7703C080912F
:1040E000B0008F7D8093B000E32FF0E0EE0FFF1F54
:1040F000E953FF4FA591B4912FB7F894662321F4AB
:104100008C919095892302C08C91892B8C932FBF21
:104110000895DC015C968C915C97FD01E80FF11D20
:10412000E35AFF4F20815C968C915C9790E001965A
:104130008F7390705C968C935C975696ED91FC9182
:10414000579720835096ED91FC9151978081806420
:1041500080835B969C915B975C968C915C9798179B
:1041600039F45296ED91FC91539780818F7D808335
:104170000895DF92EF92FF920F931F93CF93DF93F7
:10418000EC017A018B01D22EE889F98982E08083E3
:10419000403081EE580780E0680780E07807A1F0A2
:1041A00060E079E08DE390E0A80197010E944D2541
:1041B00021503040404050405695479537952795BF
:1041C00080E12030380798F0E889F989108260E8AA
:1041D00074E88EE190E0A80197010E944D252150DE
:1041E0003040404050405695479537952795EC858F
:1041F000FD853083EE85FF852083188EEC89FD894F
:10420000D082EA89FB89808180618083EA89FB8989
:10421000808188608083EA89FB89808180688083CF
:10422000EA89FB8980818F7D8083DF91CF911F9107
:104230000F91FF90EF90DF900895FC01218D828D0A
:1042400030E0205C3F4F281B31092F733070C901CB
:104250000895FC01918D828D981719F42FEF3FEF8F
:1042600006C0828DE80FF11D858D282F30E0C90131
:104270000895DC0159969C9159975A968C915A97BA
:10428000981719F42FEF3FEF10C05A968C915A9758
:10429000FD01E80FF11D958D5A968C915A978F5F0D
:1042A0008F735A968C93292F30E0C9010895CF93CC
:1042B000DF93EC01888D882361F419C08C9185FF10
:1042C0000AC0E889F989808185FF05C0CE010E9476
:1042D0008920AA89BB898C9185FD05C0E889F98967
:1042E000808186FD04C00FB607FEE8CFF4CFDF91D2
:1042F000CF9108950F931F93CF93DF93EC01062F77
:104300009B8D8C8D981791F5E889F989808185FFBF
:104310002DC0EE89FF896083E889F98980818064F6
:1043200080831DC00FB607FC08C0E889F989808129
:1043300085FF03C0CE010E9489208C8D181791F350
:104340008B8DFE01E80FF11DE35AFF4F00831B8F99
:10435000EA89FB8980818062808381E0888F81E0A7
:1043600090E0DF91CF911F910F9108951B8D1F5FFA
:104370001F73E3CF82E492E2892B51F080E090E05A
:10438000892B31F00E944222882311F00E94000004
:1043900008951F920F920FB60F9211242F938F93AF
:1043A0009F93EF93FF93E0915606F091570680811B
:1043B00082FD16C0E0915C06F0915D06208190912F
:1043C0005F069F5F9F7380916006981771F0E09180
:1043D0005F06F0E0EA5BF94F258F90935F0605C01A
:1043E000E0915C06F0915D06E081FF91EF919F9175
:1043F0008F912F910F900FBE0F901F9018951092D4
:1044000049061092480688EE93E0A0E0B0E0809361
:104410004A0690934B06A0934C06B0934D068BE949
:1044200091E0909347068093460685EC90E0909348
:1044300053068093520684EC90E090935506809347
:10444000540680EC90E0909357068093560681ECDA
:1044500090E0909359068093580682EC90E09093F8
:104460005B0680935A0686EC90E090935D068093FD
:104470005C0610925F061092600610926106109220
:104480006206089586E496E00E941D2120E0892BB3
:1044900009F021E0822F08951F920F920FB60F921C
:1044A00011242F933F934F935F936F937F938F9339
:1044B0009F93AF93BF93EF93FF9386E496E00E94A0
:1044C0008920FF91EF91BF91AF919F918F917F9143
:1044D0006F915F914F913F912F910F900FBE0F9071
:1044E0001F901895CF93DF930E94F31E0E94F30450
:1044F000CAEBD1E20E94D1042097E1F30E94BA21D5
:10450000F9CF0E94451D08950E94A81C0895CF92DE
:10451000DF92EF92FF920F931F93CF93DF937C0173
:104520006B018A01C0E0D0E00FC0D6016D916D0132
:10453000D701ED91FC910190F081E02DC701099523
:10454000C80FD91F015010400115110571F7CE0198
:10455000DF91CF911F910F91FF90EF90DF90CF905F
:104560000895EF92FF920F931F93CF93DF937C01F7
:104570008B01C0E0D0E0F8010F5F1F4F649166230C
:1045800059F0D701ED91FC910190F081E02DC70128
:104590000995C80FD91FEFCFCE01DF91CF911F91A1
:1045A0000F91FF90EF900895EF92FF920F931F935A
:1045B0008C01DC01ED91FC910190F081E02D6DE02A
:1045C00009957C01D801ED91FC910190F081E02DDD
:1045D000C8016AE009959C012E0D3F1DC9011F917C
:1045E0000F91FF90EF900895EF92FF920F931F931A
:1045F0007C010E94B1228C01C7010E94D4229C013F
:10460000200F311FC9011F910F91FF90EF90089566
:10461000CF93DF93EC016115710519F420E030E0D0
:104620000FC0DB010D900020E9F71197A61BB70B17
:10463000E881F9810280F381E02DAD0109959C01AB
:10464000C901DF91CF9108954F925F927F928F922F
:104650009F92AF92BF92CF92DF92EF92FF920F9311
:104660001F93DF93CF93CDB7DEB7A1970FB6F89422
:10467000DEBF0FBECDBF2C01742ECB01223008F45B
:104680002AE019A231E2C32ED12CCC0EDD1E822EDF
:104690009924AA24BB24672D752FA50194010E949B
:1046A0004D2579018A01C801B701A50194010E9435
:1046B0001A25472D461B0894C108D1084A3014F426
:1046C000405D01C0495CF6014083E114F10401053D
:1046D000110521F07E2C5F2DC801DDCFC201B6018E
:1046E0000E940823A1960FB6F894DEBF0FBECDBF7F
:1046F000CF91DF911F910F91FF90EF90DF90CF90BE
:10470000BF90AF909F908F907F905F904F90089553
:10471000DC012115310541F4ED91FC910190F0810E
:10472000E02D642F099508950E9424230895EF92A7
:10473000FF920F931F939A01E62EFF2400E010E0F2
:10474000B801A7010E9488231F910F91FF90EF905D
:104750000895CF92DF92EF92FF920F931F93CF9322
:10476000DF93EC016A017B012115310541F4E881F9
:10477000F9810190F081E02D642F09951FC02A3046
:104780003105D1F477FF17C0E881F9810190F081FC
:10479000E02D6DE209958C0144275527BA014C198B
:1047A0005D096E097F09CE012AE00E942423980149
:1047B000280F391F04C02AE00E9424239C01C9014C
:1047C000DF91CF911F910F91FF90EF90DF90CF90ED
:1047D0000895EF92FF920F931F937B019A01002798
:1047E000F7FC0095102FB801A7010E94A9231F9183
:1047F0000F91FF90EF900895089598D088F09F57FB
:1048000090F0B92F9927B751A0F0D1F0660F771F1C
:10481000881F991F1AF0BA95C9F712C0B13081F0FC
:104820009FD0B1E008959CC0672F782F8827B85F8C
:1048300039F0B93FCCF3869577956795B395D9F75D
:104840003EF490958095709561957F4F8F4F9F4F67
:104850000895E89409C097FB3EF490958095709573
:1048600061957F4F8F4F9F4F9923A9F0F92F96E9BC
:10487000BB279395F695879577956795B795F11131
:10488000F8CFFAF4BB0F11F460FF1BC06F5F7F4FCE
:104890008F4F9F4F16C0882311F096E911C07723E0
:1048A00021F09EE8872F762F05C0662371F096E8E9
:1048B000862F70E060E02AF09A95660F771F881FB8
:1048C000DAF7880F9695879597F9089597F99F6776
:1048D00080E870E060E008959FEF80EC0895002488
:1048E0000A941616170618060906089500240A9455
:1048F00012161306140605060895092E0394000CDB
:1049000011F4882352F0BB0F40F4BF2B11F460FF69
:1049100004C06F5F7F4F8F4F9F4F089557FD905892
:10492000440F551F59F05F3F71F04795880F97FB73
:10493000991F61F09F3F79F087950895121613062D
:104940001406551FF2CF4695F1DF08C0161617065C
:104950001806991FF1CF8695710561050894089591
:10496000E894BB2766277727CB0197F908950BD0EA
:10497000C4CFB5DF28F0BADF18F0952309F0A6CF31
:10498000ABCF1124EECFCADFA0F3959FD1F3950FE3
:1049900050E0551F629FF001729FBB27F00DB11DC3
:1049A000639FAA27F00DB11DAA1F649F6627B00D53
:1049B000A11D661F829F2227B00DA11D621F739F3C
:1049C000B00DA11D621F839FA00D611D221F749F4A
:1049D0003327A00D611D231F849F600D211D822F91
:1049E000762F6A2F11249F5750408AF0E1F08823D8
:1049F0004AF0EE0FFF1FBB1F661F771F881F9150E5
:104A00005040A9F79E3F510570F060CFAACF5F3F9D
:104A1000ECF3983EDCF3869577956795B795F79517
:104A2000E7959F5FC1F7FE2B880F911D969587959F
:104A300097F90895629FD001739FF001829FE00D66
:104A4000F11D649FE00DF11D929FF00D839FF00D0D
:104A5000749FF00D659FF00D9927729FB00DE11DB9
:104A6000F91F639FB00DE11DF91FBD01CF01112496
:104A70000895AA1BBB1B51E107C0AA1FBB1FA617A5
:104A8000B70710F0A61BB70B881F991F5A95A9F7F7
:104A900080959095BC01CD010895A1E21A2EAA1B24
:104AA000BB1BFD010DC0AA1FBB1FEE1FFF1FA217DE
:104AB000B307E407F50720F0A21BB30BE40BF50BDB
:104AC000661F771F881F991F1A9469F76095709564
:104AD000809590959B01AC01BD01CF010895EE0F2B
:104AE000FF1F0590F491E02D0994911106C08032CA
:104AF00019F089508550D0F708959927882708958F
:104B00002F923F924F925F926F927F928F929F92DD
:104B1000AF92BF92CF92DF92EF92FF920F931F93CB
:104B2000CF93DF93CDB7DEB7CA1BDB0B0FB6F8947C
:104B3000DEBF0FBECDBF09942A88398848885F84BC
:104B40006E847D848C849B84AA84B984C884DF802D
:104B5000EE80FD800C811B81AA81B981CE0FD11D11
:104B60000FB6F894DEBF0FBECDBFED010895F894E7
:024B7000FFCF75
:104B72007B7D5B5D3A2C22200D0A008000E9060055
:104B82000000000000DD0FD00FDC0F000000006508
:104B9200105810641000000000E010D110DF100067
:104BA200000000601153115F11000000002512D2B5
:104BB20011DE11000000000B139312A1120000007D
:104BC200005C1411141214000000002715E91400EF
:104BD200000000EC15AE15000000009F166B1600D9
:104BE2000000009A17661700000000CD18991800FF
:104BF200000000D0199C1900000000581B211B0066
:104C0200000000F31BBF1B000000007A2187221D59
:084C120021392129215721005D
:00000001FF
